{
  "_format": "hh-sol-artifact-1",
  "contractName": "GrandLithuanianDukesNFT",
  "sourceName": "contracts/GrandLithuanianDukesNFT.sol",
  "abi": [
    {
      "inputs": [
        {
          "internalType": "string",
          "name": "_baseURI",
          "type": "string"
        }
      ],
      "stateMutability": "nonpayable",
      "type": "constructor"
    },
    {
      "inputs": [
        {
          "internalType": "address",
          "name": "sender",
          "type": "address"
        },
        {
          "internalType": "uint256",
          "name": "tokenId",
          "type": "uint256"
        },
        {
          "internalType": "address",
          "name": "owner",
          "type": "address"
        }
      ],
      "name": "ERC721IncorrectOwner",
      "type": "error"
    },
    {
      "inputs": [
        {
          "internalType": "address",
          "name": "operator",
          "type": "address"
        },
        {
          "internalType": "uint256",
          "name": "tokenId",
          "type": "uint256"
        }
      ],
      "name": "ERC721InsufficientApproval",
      "type": "error"
    },
    {
      "inputs": [
        {
          "internalType": "address",
          "name": "approver",
          "type": "address"
        }
      ],
      "name": "ERC721InvalidApprover",
      "type": "error"
    },
    {
      "inputs": [
        {
          "internalType": "address",
          "name": "operator",
          "type": "address"
        }
      ],
      "name": "ERC721InvalidOperator",
      "type": "error"
    },
    {
      "inputs": [
        {
          "internalType": "address",
          "name": "owner",
          "type": "address"
        }
      ],
      "name": "ERC721InvalidOwner",
      "type": "error"
    },
    {
      "inputs": [
        {
          "internalType": "address",
          "name": "receiver",
          "type": "address"
        }
      ],
      "name": "ERC721InvalidReceiver",
      "type": "error"
    },
    {
      "inputs": [
        {
          "internalType": "address",
          "name": "sender",
          "type": "address"
        }
      ],
      "name": "ERC721InvalidSender",
      "type": "error"
    },
    {
      "inputs": [
        {
          "internalType": "uint256",
          "name": "tokenId",
          "type": "uint256"
        }
      ],
      "name": "ERC721NonexistentToken",
      "type": "error"
    },
    {
      "inputs": [
        {
          "internalType": "address",
          "name": "owner",
          "type": "address"
        }
      ],
      "name": "OwnableInvalidOwner",
      "type": "error"
    },
    {
      "inputs": [
        {
          "internalType": "address",
          "name": "account",
          "type": "address"
        }
      ],
      "name": "OwnableUnauthorizedAccount",
      "type": "error"
    },
    {
      "anonymous": false,
      "inputs": [
        {
          "indexed": true,
          "internalType": "address",
          "name": "owner",
          "type": "address"
        },
        {
          "indexed": true,
          "internalType": "address",
          "name": "approved",
          "type": "address"
        },
        {
          "indexed": true,
          "internalType": "uint256",
          "name": "tokenId",
          "type": "uint256"
        }
      ],
      "name": "Approval",
      "type": "event"
    },
    {
      "anonymous": false,
      "inputs": [
        {
          "indexed": true,
          "internalType": "address",
          "name": "owner",
          "type": "address"
        },
        {
          "indexed": true,
          "internalType": "address",
          "name": "operator",
          "type": "address"
        },
        {
          "indexed": false,
          "internalType": "bool",
          "name": "approved",
          "type": "bool"
        }
      ],
      "name": "ApprovalForAll",
      "type": "event"
    },
    {
      "anonymous": false,
      "inputs": [
        {
          "indexed": false,
          "internalType": "uint256",
          "name": "_fromTokenId",
          "type": "uint256"
        },
        {
          "indexed": false,
          "internalType": "uint256",
          "name": "_toTokenId",
          "type": "uint256"
        }
      ],
      "name": "BatchMetadataUpdate",
      "type": "event"
    },
    {
      "anonymous": false,
      "inputs": [
        {
          "indexed": false,
          "internalType": "uint256",
          "name": "_tokenId",
          "type": "uint256"
        }
      ],
      "name": "MetadataUpdate",
      "type": "event"
    },
    {
      "anonymous": false,
      "inputs": [
        {
          "indexed": true,
          "internalType": "address",
          "name": "previousOwner",
          "type": "address"
        },
        {
          "indexed": true,
          "internalType": "address",
          "name": "newOwner",
          "type": "address"
        }
      ],
      "name": "OwnershipTransferred",
      "type": "event"
    },
    {
      "anonymous": false,
      "inputs": [
        {
          "indexed": true,
          "internalType": "address",
          "name": "from",
          "type": "address"
        },
        {
          "indexed": true,
          "internalType": "address",
          "name": "to",
          "type": "address"
        },
        {
          "indexed": true,
          "internalType": "uint256",
          "name": "tokenId",
          "type": "uint256"
        }
      ],
      "name": "Transfer",
      "type": "event"
    },
    {
      "inputs": [
        {
          "internalType": "address",
          "name": "to",
          "type": "address"
        },
        {
          "internalType": "uint256",
          "name": "tokenId",
          "type": "uint256"
        }
      ],
      "name": "approve",
      "outputs": [],
      "stateMutability": "nonpayable",
      "type": "function"
    },
    {
      "inputs": [
        {
          "internalType": "address",
          "name": "owner",
          "type": "address"
        }
      ],
      "name": "balanceOf",
      "outputs": [
        {
          "internalType": "uint256",
          "name": "",
          "type": "uint256"
        }
      ],
      "stateMutability": "view",
      "type": "function"
    },
    {
      "inputs": [],
      "name": "baseURI",
      "outputs": [
        {
          "internalType": "string",
          "name": "",
          "type": "string"
        }
      ],
      "stateMutability": "view",
      "type": "function"
    },
    {
      "inputs": [
        {
          "internalType": "uint256",
          "name": "tokenId",
          "type": "uint256"
        }
      ],
      "name": "getApproved",
      "outputs": [
        {
          "internalType": "address",
          "name": "",
          "type": "address"
        }
      ],
      "stateMutability": "view",
      "type": "function"
    },
    {
      "inputs": [
        {
          "internalType": "address",
          "name": "owner",
          "type": "address"
        },
        {
          "internalType": "address",
          "name": "operator",
          "type": "address"
        }
      ],
      "name": "isApprovedForAll",
      "outputs": [
        {
          "internalType": "bool",
          "name": "",
          "type": "bool"
        }
      ],
      "stateMutability": "view",
      "type": "function"
    },
    {
      "inputs": [],
      "name": "name",
      "outputs": [
        {
          "internalType": "string",
          "name": "",
          "type": "string"
        }
      ],
      "stateMutability": "view",
      "type": "function"
    },
    {
      "inputs": [
        {
          "internalType": "uint256",
          "name": "",
          "type": "uint256"
        }
      ],
      "name": "nfts",
      "outputs": [
        {
          "internalType": "string",
          "name": "metadataFile",
          "type": "string"
        },
        {
          "internalType": "uint256",
          "name": "price",
          "type": "uint256"
        }
      ],
      "stateMutability": "view",
      "type": "function"
    },
    {
      "inputs": [],
      "name": "owner",
      "outputs": [
        {
          "internalType": "address",
          "name": "",
          "type": "address"
        }
      ],
      "stateMutability": "view",
      "type": "function"
    },
    {
      "inputs": [
        {
          "internalType": "uint256",
          "name": "tokenId",
          "type": "uint256"
        }
      ],
      "name": "ownerOf",
      "outputs": [
        {
          "internalType": "address",
          "name": "",
          "type": "address"
        }
      ],
      "stateMutability": "view",
      "type": "function"
    },
    {
      "inputs": [
        {
          "internalType": "uint256",
          "name": "tokenId",
          "type": "uint256"
        }
      ],
      "name": "purchaseNFT",
      "outputs": [],
      "stateMutability": "payable",
      "type": "function"
    },
    {
      "inputs": [],
      "name": "renounceOwnership",
      "outputs": [],
      "stateMutability": "nonpayable",
      "type": "function"
    },
    {
      "inputs": [
        {
          "internalType": "address",
          "name": "from",
          "type": "address"
        },
        {
          "internalType": "address",
          "name": "to",
          "type": "address"
        },
        {
          "internalType": "uint256",
          "name": "tokenId",
          "type": "uint256"
        }
      ],
      "name": "safeTransferFrom",
      "outputs": [],
      "stateMutability": "nonpayable",
      "type": "function"
    },
    {
      "inputs": [
        {
          "internalType": "address",
          "name": "from",
          "type": "address"
        },
        {
          "internalType": "address",
          "name": "to",
          "type": "address"
        },
        {
          "internalType": "uint256",
          "name": "tokenId",
          "type": "uint256"
        },
        {
          "internalType": "bytes",
          "name": "data",
          "type": "bytes"
        }
      ],
      "name": "safeTransferFrom",
      "outputs": [],
      "stateMutability": "nonpayable",
      "type": "function"
    },
    {
      "inputs": [
        {
          "internalType": "address",
          "name": "operator",
          "type": "address"
        },
        {
          "internalType": "bool",
          "name": "approved",
          "type": "bool"
        }
      ],
      "name": "setApprovalForAll",
      "outputs": [],
      "stateMutability": "nonpayable",
      "type": "function"
    },
    {
      "inputs": [
        {
          "internalType": "bytes4",
          "name": "interfaceId",
          "type": "bytes4"
        }
      ],
      "name": "supportsInterface",
      "outputs": [
        {
          "internalType": "bool",
          "name": "",
          "type": "bool"
        }
      ],
      "stateMutability": "view",
      "type": "function"
    },
    {
      "inputs": [],
      "name": "symbol",
      "outputs": [
        {
          "internalType": "string",
          "name": "",
          "type": "string"
        }
      ],
      "stateMutability": "view",
      "type": "function"
    },
    {
      "inputs": [],
      "name": "tokenCounter",
      "outputs": [
        {
          "internalType": "uint256",
          "name": "",
          "type": "uint256"
        }
      ],
      "stateMutability": "view",
      "type": "function"
    },
    {
      "inputs": [
        {
          "internalType": "uint256",
          "name": "tokenId",
          "type": "uint256"
        }
      ],
      "name": "tokenURI",
      "outputs": [
        {
          "internalType": "string",
          "name": "",
          "type": "string"
        }
      ],
      "stateMutability": "view",
      "type": "function"
    },
    {
      "inputs": [
        {
          "internalType": "address",
          "name": "from",
          "type": "address"
        },
        {
          "internalType": "address",
          "name": "to",
          "type": "address"
        },
        {
          "internalType": "uint256",
          "name": "tokenId",
          "type": "uint256"
        }
      ],
      "name": "transferFrom",
      "outputs": [],
      "stateMutability": "nonpayable",
      "type": "function"
    },
    {
      "inputs": [
        {
          "internalType": "address",
          "name": "newOwner",
          "type": "address"
        }
      ],
      "name": "transferOwnership",
      "outputs": [],
      "stateMutability": "nonpayable",
      "type": "function"
    },
    {
      "inputs": [],
      "name": "withdraw",
      "outputs": [],
      "stateMutability": "nonpayable",
      "type": "function"
    }
  ],
  "bytecode": "0x60806040523480156200001157600080fd5b5060405162004dd038038062004dd0833981810160405281019062000037919062001dbc565b336040518060400160405280601881526020017f4772616e642044756b6573206f66204c69746875616e696100000000000000008152506040518060400160405280600681526020017f47444c4e465400000000000000000000000000000000000000000000000000008152508160009081620000b5919062002058565b508060019081620000c7919062002058565b505050600073ffffffffffffffffffffffffffffffffffffffff168173ffffffffffffffffffffffffffffffffffffffff16036200013f5760006040517f1e4fbdf700000000000000000000000000000000000000000000000000000000815260040162000136919062002184565b60405180910390fd5b62000150816200019260201b60201c565b50806009908162000162919062002058565b5060006008819055506200017b6200025860201b60201c565b6200018b62000f8e60201b60201c565b5062002497565b6000600760009054906101000a900473ffffffffffffffffffffffffffffffffffffffff16905081600760006101000a81548173ffffffffffffffffffffffffffffffffffffffff021916908373ffffffffffffffffffffffffffffffffffffffff1602179055508173ffffffffffffffffffffffffffffffffffffffff168173ffffffffffffffffffffffffffffffffffffffff167f8be0079c531659141344cd1fd0a4f28419497f9722a3daafe3b4186f6b6457e060405160405180910390a35050565b600a60405180604001604052806040518060400160405280601081526020017f315f6d696e6461756761732e6a736f6e000000000000000000000000000000008152508152602001670bcbce7f1b15000081525090806001815401808255809150506001900390600052602060002090600202016000909190919091506000820151816000019081620002ec919062002058565b50602082015181600101555050600a60405180604001604052806040518060400160405280600f81526020017f325f7472656e696f74612e6a736f6e0000000000000000000000000000000000815250815260200167016345785d8a0000815250908060018154018082558091505060019003906000526020600020906002020160009091909190915060008201518160000190816200038d919062002058565b50602082015181600101555050600a60405180604001604052806040518060400160405280601281526020017f335f766169736876696c6b61732e6a736f6e00000000000000000000000000008152508152602001670905438e60010000815250908060018154018082558091505060019003906000526020600020906002020160009091909190915060008201518160000190816200042e919062002058565b50602082015181600101555050600a60405180604001604052806040518060400160405280600f81526020017f345f73687661726e61732e6a736f6e00000000000000000000000000000000008152508152602001670429d069189e000081525090806001815401808255809150506001900390600052602060002090600202016000909190919091506000820151816000019081620004cf919062002058565b50602082015181600101555050600a60405180604001604052806040518060400160405280601081526020017f355f7472616964656e69732e6a736f6e000000000000000000000000000000008152508152602001670853a0d2313c00008152509080600181540180825580915050600190039060005260206000209060020201600090919091909150600082015181600001908162000570919062002058565b50602082015181600101555050600a60405180604001604052806040518060400160405280601081526020017f365f6461756d616e7461732e6a736f6e00000000000000000000000000000000815250815260200167016345785d8a00008152509080600181540180825580915050600190039060005260206000209060020201600090919091909150600082015181600001908162000611919062002058565b50602082015181600101555050600a60405180604001604052806040518060400160405280601181526020017f375f627574696765696469732e6a736f6e000000000000000000000000000000815250815260200167016345785d8a000081525090806001815401808255809150506001900390600052602060002090600202016000909190919091506000820151816000019081620006b2919062002058565b50602082015181600101555050600a60405180604001604052806040518060400160405280600f81526020017f385f62757476796461732e6a736f6e0000000000000000000000000000000000815250815260200167016345785d8a00008152509080600181540180825580915050600190039060005260206000209060020201600090919091909150600082015181600001908162000753919062002058565b50602082015181600101555050600a60405180604001604052806040518060400160405280600e81526020017f395f767974656e69732e6a736f6e0000000000000000000000000000000000008152508152602001670853a0d2313c000081525090806001815401808255809150506001900390600052602060002090600202016000909190919091506000820151816000019081620007f4919062002058565b50602082015181600101555050600a60405180604001604052806040518060400160405280601181526020017f31305f676564696d696e61732e6a736f6e0000000000000000000000000000008152508152602001670aaf96eb9d0d00008152509080600181540180825580915050600190039060005260206000209060020201600090919091909150600082015181600001908162000895919062002058565b50602082015181600101555050600a60405180604001604052806040518060400160405280601081526020017f31315f6a61756e757469732e6a736f6e00000000000000000000000000000000815250815260200166d529ae9e8600008152509080600181540180825580915050600190039060005260206000209060020201600090919091909150600082015181600001908162000935919062002058565b50602082015181600101555050600a60405180604001604052806040518060400160405280601081526020017f31325f616c6769726461732e6a736f6e000000000000000000000000000000008152508152602001670a8c0ff92d4c000081525090806001815401808255809150506001900390600052602060002090600202016000909190919091506000820151816000019081620009d6919062002058565b50602082015181600101555050600a60405180604001604052806040518060400160405280601181526020017f31335f6b65797374757469732e6a736f6e00000000000000000000000000000081525081526020016709935f581f0500008152509080600181540180825580915050600190039060005260206000209060020201600090919091909150600082015181600001908162000a77919062002058565b50602082015181600101555050600a60405180604001604052806040518060400160405280600f81526020017f31345f6a6f6761696c612e6a736f6e00000000000000000000000000000000008152508152602001670d529ae9e86000008152509080600181540180825580915050600190039060005260206000209060020201600090919091909150600082015181600001908162000b18919062002058565b50602082015181600101555050600a60405180604001604052806040518060400160405280601081526020017f31355f76797461757461732e6a736f6e0000000000000000000000000000000081525081526020016709da6d3cfe8700008152509080600181540180825580915050600190039060005260206000209060020201600090919091909150600082015181600001908162000bb9919062002058565b50602082015181600101555050600a60405180604001604052806040518060400160405280601481526020017f31365f736876697472696761696c612e6a736f6e00000000000000000000000081525081526020016704064976a8dd00008152509080600181540180825580915050600190039060005260206000209060020201600090919091909150600082015181600001908162000c5a919062002058565b50602082015181600101555050600a60405180604001604052806040518060400160405280601f81526020017f31375f6a7967696d616e7461735f6b65797374757461697469732e6a736f6e008152508152602001670713e24c437300008152509080600181540180825580915050600190039060005260206000209060020201600090919091909150600082015181600001908162000cfb919062002058565b50602082015181600101555050600a60405180604001604052806040518060400160405280601e81526020017f31385f6b617a696d69657261735f6a6f6761696c61697469732e6a736f6e0000815250815260200167094c51733f8300008152509080600181540180825580915050600190039060005260206000209060020201600090919091909150600082015181600001908162000d9c919062002058565b50602082015181600101555050600a60405180604001604052806040518060400160405280601f81526020017f31395f616c656b73616e647261735f6a6f6761696c61697469732e6a736f6e0081525081526020016708e1bc9bf04000008152509080600181540180825580915050600190039060005260206000209060020201600090919091909150600082015181600001908162000e3d919062002058565b50602082015181600101555050600a60405180604001604052806040518060400160405280601a81526020017f32305f6a7967696d616e7461735f73656e617369732e6a736f6e0000000000008152508152602001670aaf96eb9d0d00008152509080600181540180825580915050600190039060005260206000209060020201600090919091909150600082015181600001908162000ede919062002058565b50602082015181600101555050600a60405180604001604052806040518060400160405280601b81526020017f32315f6a7967696d616e7461735f61756775737461732e6a736f6e0000000000815250815260200167096fd865af4400008152509080600181540180825580915050600190039060005260206000209060020201600090919091909150600082015181600001908162000f7f919062002058565b50602082015181600101555050565b62000f9e62000fd160201b60201c565b60005b600a8054905081101562000fce5762000fc0816200107360201b60201c565b808060010191505062000fa1565b50565b62000fe16200111760201b60201c565b73ffffffffffffffffffffffffffffffffffffffff16620010076200111f60201b60201c565b73ffffffffffffffffffffffffffffffffffffffff16146200107157620010336200111760201b60201c565b6040517f118cdaa700000000000000000000000000000000000000000000000000000000815260040162001068919062002184565b60405180910390fd5b565b6200108362000fd160201b60201c565b60006009600a83815481106200109e576200109d620021a1565b5b9060005260206000209060020201600001604051602001620010c29291906200226a565b6040516020818303038152906040529050620010e530836200114960201b60201c565b620010f782826200116f60201b60201c565b6001600860008282546200110c9190620022c1565b925050819055505050565b600033905090565b6000600760009054906101000a900473ffffffffffffffffffffffffffffffffffffffff16905090565b6200116b828260405180602001604052806000815250620011cf60201b60201c565b5050565b8060066000848152602001908152602001600020908162001191919062002058565b507ff8e1a15aba9398e019f0b49df1a4fde98ee17ae345cb5f6b5e2c27f5033e8ce782604051620011c391906200230d565b60405180910390a15050565b620011e18383620011fb60201b60201c565b620011f660008484846200130260201b60201c565b505050565b600073ffffffffffffffffffffffffffffffffffffffff168273ffffffffffffffffffffffffffffffffffffffff1603620012705760006040517f64a0ae9200000000000000000000000000000000000000000000000000000000815260040162001267919062002184565b60405180910390fd5b60006200128683836000620014d060201b60201c565b9050600073ffffffffffffffffffffffffffffffffffffffff168173ffffffffffffffffffffffffffffffffffffffff1614620012fd5760006040517f73c6ac6e000000000000000000000000000000000000000000000000000000008152600401620012f4919062002184565b60405180910390fd5b505050565b60008373ffffffffffffffffffffffffffffffffffffffff163b1115620014ca578273ffffffffffffffffffffffffffffffffffffffff1663150b7a026200134f6200111760201b60201c565b8685856040518563ffffffff1660e01b815260040162001373949392919062002387565b6020604051808303816000875af1925050508015620013b257506040513d601f19601f82011682018060405250810190620013af919062002438565b60015b6200143c573d8060008114620013e5576040519150601f19603f3d011682016040523d82523d6000602084013e620013ea565b606091505b5060008151036200143457836040517f64a0ae920000000000000000000000000000000000000000000000000000000081526004016200142b919062002184565b60405180910390fd5b805181602001fd5b63150b7a0260e01b7bffffffffffffffffffffffffffffffffffffffffffffffffffffffff1916817bffffffffffffffffffffffffffffffffffffffffffffffffffffffff191614620014c857836040517f64a0ae92000000000000000000000000000000000000000000000000000000008152600401620014bf919062002184565b60405180910390fd5b505b50505050565b600080620014e4846200170560201b60201c565b9050600073ffffffffffffffffffffffffffffffffffffffff168373ffffffffffffffffffffffffffffffffffffffff16146200152f576200152e8184866200174260201b60201c565b5b600073ffffffffffffffffffffffffffffffffffffffff168173ffffffffffffffffffffffffffffffffffffffff1614620015c9576200157a6000856000806200181460201b60201c565b6001600360008373ffffffffffffffffffffffffffffffffffffffff1673ffffffffffffffffffffffffffffffffffffffff168152602001908152602001600020600082825403925050819055505b600073ffffffffffffffffffffffffffffffffffffffff168573ffffffffffffffffffffffffffffffffffffffff16146200164d576001600360008773ffffffffffffffffffffffffffffffffffffffff1673ffffffffffffffffffffffffffffffffffffffff168152602001908152602001600020600082825401925050819055505b846002600086815260200190815260200160002060006101000a81548173ffffffffffffffffffffffffffffffffffffffff021916908373ffffffffffffffffffffffffffffffffffffffff160217905550838573ffffffffffffffffffffffffffffffffffffffff168273ffffffffffffffffffffffffffffffffffffffff167fddf252ad1be2c89b69c2b068fc378daa952ba7f163c4a11628f55a4df523b3ef60405160405180910390a4809150509392505050565b60006002600083815260200190815260200160002060009054906101000a900473ffffffffffffffffffffffffffffffffffffffff169050919050565b62001755838383620019f160201b60201c565b6200180f57600073ffffffffffffffffffffffffffffffffffffffff168373ffffffffffffffffffffffffffffffffffffffff1603620017ce57806040517f7e273289000000000000000000000000000000000000000000000000000000008152600401620017c591906200230d565b60405180910390fd5b81816040517f177e802f000000000000000000000000000000000000000000000000000000008152600401620018069291906200246a565b60405180910390fd5b505050565b80806200184e5750600073ffffffffffffffffffffffffffffffffffffffff168273ffffffffffffffffffffffffffffffffffffffff1614155b1562001999576000620018678462001ac560201b60201c565b9050600073ffffffffffffffffffffffffffffffffffffffff168373ffffffffffffffffffffffffffffffffffffffff1614158015620018d357508273ffffffffffffffffffffffffffffffffffffffff168173ffffffffffffffffffffffffffffffffffffffff1614155b8015620018ef5750620018ed818462001b5860201b60201c565b155b156200193457826040517fa9fbf51f0000000000000000000000000000000000000000000000000000000081526004016200192b919062002184565b60405180910390fd5b81156200199757838573ffffffffffffffffffffffffffffffffffffffff168273ffffffffffffffffffffffffffffffffffffffff167f8c5be1e5ebec7d5bd14f71427d1e84f3dd0314c0f7b2291e5b200ac8c7c3b92560405160405180910390a45b505b836004600085815260200190815260200160002060006101000a81548173ffffffffffffffffffffffffffffffffffffffff021916908373ffffffffffffffffffffffffffffffffffffffff16021790555050505050565b60008073ffffffffffffffffffffffffffffffffffffffff168373ffffffffffffffffffffffffffffffffffffffff161415801562001abc57508273ffffffffffffffffffffffffffffffffffffffff168473ffffffffffffffffffffffffffffffffffffffff16148062001a74575062001a73848462001b5860201b60201c565b5b8062001abb57508273ffffffffffffffffffffffffffffffffffffffff1662001aa38362001bec60201b60201c565b73ffffffffffffffffffffffffffffffffffffffff16145b5b90509392505050565b60008062001ad9836200170560201b60201c565b9050600073ffffffffffffffffffffffffffffffffffffffff168173ffffffffffffffffffffffffffffffffffffffff160362001b4f57826040517f7e27328900000000000000000000000000000000000000000000000000000000815260040162001b4691906200230d565b60405180910390fd5b80915050919050565b6000600560008473ffffffffffffffffffffffffffffffffffffffff1673ffffffffffffffffffffffffffffffffffffffff16815260200190815260200160002060008373ffffffffffffffffffffffffffffffffffffffff1673ffffffffffffffffffffffffffffffffffffffff16815260200190815260200160002060009054906101000a900460ff16905092915050565b60006004600083815260200190815260200160002060009054906101000a900473ffffffffffffffffffffffffffffffffffffffff169050919050565b6000604051905090565b600080fd5b600080fd5b600080fd5b600080fd5b6000601f19601f8301169050919050565b7f4e487b7100000000000000000000000000000000000000000000000000000000600052604160045260246000fd5b62001c928262001c47565b810181811067ffffffffffffffff8211171562001cb45762001cb362001c58565b5b80604052505050565b600062001cc962001c29565b905062001cd7828262001c87565b919050565b600067ffffffffffffffff82111562001cfa5762001cf962001c58565b5b62001d058262001c47565b9050602081019050919050565b60005b8381101562001d3257808201518184015260208101905062001d15565b60008484015250505050565b600062001d5562001d4f8462001cdc565b62001cbd565b90508281526020810184848401111562001d745762001d7362001c42565b5b62001d8184828562001d12565b509392505050565b600082601f83011262001da15762001da062001c3d565b5b815162001db384826020860162001d3e565b91505092915050565b60006020828403121562001dd55762001dd462001c33565b5b600082015167ffffffffffffffff81111562001df65762001df562001c38565b5b62001e048482850162001d89565b91505092915050565b600081519050919050565b7f4e487b7100000000000000000000000000000000000000000000000000000000600052602260045260246000fd5b6000600282049050600182168062001e6057607f821691505b60208210810362001e765762001e7562001e18565b5b50919050565b60008190508160005260206000209050919050565b60006020601f8301049050919050565b600082821b905092915050565b60006008830262001ee07fffffffffffffffffffffffffffffffffffffffffffffffffffffffffffffffff8262001ea1565b62001eec868362001ea1565b95508019841693508086168417925050509392505050565b6000819050919050565b6000819050919050565b600062001f3962001f3362001f2d8462001f04565b62001f0e565b62001f04565b9050919050565b6000819050919050565b62001f558362001f18565b62001f6d62001f648262001f40565b84845462001eae565b825550505050565b600090565b62001f8462001f75565b62001f9181848462001f4a565b505050565b5b8181101562001fb95762001fad60008262001f7a565b60018101905062001f97565b5050565b601f821115620020085762001fd28162001e7c565b62001fdd8462001e91565b8101602085101562001fed578190505b6200200562001ffc8562001e91565b83018262001f96565b50505b505050565b600082821c905092915050565b60006200202d600019846008026200200d565b1980831691505092915050565b60006200204883836200201a565b9150826002028217905092915050565b620020638262001e0d565b67ffffffffffffffff8111156200207f576200207e62001c58565b5b6200208b825462001e47565b6200209882828562001fbd565b600060209050601f831160018114620020d05760008415620020bb578287015190505b620020c785826200203a565b86555062002137565b601f198416620020e08662001e7c565b60005b828110156200210a57848901518255600182019150602085019450602081019050620020e3565b868310156200212a578489015162002126601f8916826200201a565b8355505b6001600288020188555050505b505050505050565b600073ffffffffffffffffffffffffffffffffffffffff82169050919050565b60006200216c826200213f565b9050919050565b6200217e816200215f565b82525050565b60006020820190506200219b600083018462002173565b92915050565b7f4e487b7100000000000000000000000000000000000000000000000000000000600052603260045260246000fd5b600081905092915050565b60008154620021ea8162001e47565b620021f68186620021d0565b945060018216600081146200221457600181146200222a5762002261565b60ff198316865281151582028601935062002261565b620022358562001e7c565b60005b83811015620022595781548189015260018201915060208101905062002238565b838801955050505b50505092915050565b6000620022788285620021db565b9150620022868284620021db565b91508190509392505050565b7f4e487b7100000000000000000000000000000000000000000000000000000000600052601160045260246000fd5b6000620022ce8262001f04565b9150620022db8362001f04565b9250828201905080821115620022f657620022f562002292565b5b92915050565b620023078162001f04565b82525050565b6000602082019050620023246000830184620022fc565b92915050565b600081519050919050565b600082825260208201905092915050565b600062002353826200232a565b6200235f818562002335565b93506200237181856020860162001d12565b6200237c8162001c47565b840191505092915050565b60006080820190506200239e600083018762002173565b620023ad602083018662002173565b620023bc6040830185620022fc565b8181036060830152620023d0818462002346565b905095945050505050565b60007fffffffff0000000000000000000000000000000000000000000000000000000082169050919050565b6200241281620023db565b81146200241e57600080fd5b50565b600081519050620024328162002407565b92915050565b60006020828403121562002451576200245062001c33565b5b6000620024618482850162002421565b91505092915050565b600060408201905062002481600083018562002173565b620024906020830184620022fc565b9392505050565b61292980620024a76000396000f3fe60806040526004361061012a5760003560e01c80636c0360eb116100ab578063a22cb4651161006f578063a22cb465146103d2578063b88d4fde146103fb578063c87b56dd14610424578063d082e38114610461578063e985e9c51461048c578063f2fde38b146104c95761012a565b80636c0360eb146102fd57806370a0823114610328578063715018a6146103655780638da5cb5b1461037c57806395d89b41146103a75761012a565b806323b872dd116100f257806323b872dd14610219578063265aa621146102425780633ccfd60b1461028057806342842e0e146102975780636352211e146102c05761012a565b806301ffc9a71461012f57806306fdde031461016c578063081812fc14610197578063095ea7b3146101d4578063150bde03146101fd575b600080fd5b34801561013b57600080fd5b5061015660048036038101906101519190611f3e565b6104f2565b6040516101639190611f86565b60405180910390f35b34801561017857600080fd5b50610181610553565b60405161018e9190612031565b60405180910390f35b3480156101a357600080fd5b506101be60048036038101906101b99190612089565b6105e5565b6040516101cb91906120f7565b60405180910390f35b3480156101e057600080fd5b506101fb60048036038101906101f6919061213e565b610601565b005b61021760048036038101906102129190612089565b610617565b005b34801561022557600080fd5b50610240600480360381019061023b919061217e565b610759565b005b34801561024e57600080fd5b5061026960048036038101906102649190612089565b61085b565b6040516102779291906121e0565b60405180910390f35b34801561028c57600080fd5b50610295610917565b005b3480156102a357600080fd5b506102be60048036038101906102b9919061217e565b6109b8565b005b3480156102cc57600080fd5b506102e760048036038101906102e29190612089565b6109d8565b6040516102f491906120f7565b60405180910390f35b34801561030957600080fd5b506103126109ea565b60405161031f9190612031565b60405180910390f35b34801561033457600080fd5b5061034f600480360381019061034a9190612210565b610a78565b60405161035c919061223d565b60405180910390f35b34801561037157600080fd5b5061037a610b32565b005b34801561038857600080fd5b50610391610b46565b60405161039e91906120f7565b60405180910390f35b3480156103b357600080fd5b506103bc610b70565b6040516103c99190612031565b60405180910390f35b3480156103de57600080fd5b506103f960048036038101906103f49190612284565b610c02565b005b34801561040757600080fd5b50610422600480360381019061041d91906123f9565b610c18565b005b34801561043057600080fd5b5061044b60048036038101906104469190612089565b610c35565b6040516104589190612031565b60405180910390f35b34801561046d57600080fd5b50610476610d48565b604051610483919061223d565b60405180910390f35b34801561049857600080fd5b506104b360048036038101906104ae919061247c565b610d4e565b6040516104c09190611f86565b60405180910390f35b3480156104d557600080fd5b506104f060048036038101906104eb9190612210565b610de2565b005b6000634906490660e01b7bffffffffffffffffffffffffffffffffffffffffffffffffffffffff1916827bffffffffffffffffffffffffffffffffffffffffffffffffffffffff1916148061054c575061054b82610e68565b5b9050919050565b606060008054610562906124eb565b80601f016020809104026020016040519081016040528092919081815260200182805461058e906124eb565b80156105db5780601f106105b0576101008083540402835291602001916105db565b820191906000526020600020905b8154815290600101906020018083116105be57829003601f168201915b5050505050905090565b60006105f082610f4a565b506105fa82610fd2565b9050919050565b610613828261060e61100f565b611017565b5050565b600a80549050811061065e576040517f08c379a000000000000000000000000000000000000000000000000000000000815260040161065590612568565b60405180910390fd5b600a818154811061067257610671612588565b5b90600052602060002090600202016001015434146106c5576040517f08c379a00000000000000000000000000000000000000000000000000000000081526004016106bc90612629565b60405180910390fd5b3073ffffffffffffffffffffffffffffffffffffffff166106e5826109d8565b73ffffffffffffffffffffffffffffffffffffffff161461073b576040517f08c379a000000000000000000000000000000000000000000000000000000000815260040161073290612695565b60405180910390fd5b61075630338360405180602001604052806000815250611029565b50565b600073ffffffffffffffffffffffffffffffffffffffff168273ffffffffffffffffffffffffffffffffffffffff16036107cb5760006040517f64a0ae920000000000000000000000000000000000000000000000000000000081526004016107c291906120f7565b60405180910390fd5b60006107df83836107da61100f565b611046565b90508373ffffffffffffffffffffffffffffffffffffffff168173ffffffffffffffffffffffffffffffffffffffff1614610855578382826040517f64283d7b00000000000000000000000000000000000000000000000000000000815260040161084c939291906126b5565b60405180910390fd5b50505050565b600a818154811061086b57600080fd5b906000526020600020906002020160009150905080600001805461088e906124eb565b80601f01602080910402602001604051908101604052809291908181526020018280546108ba906124eb565b80156109075780601f106108dc57610100808354040283529160200191610907565b820191906000526020600020905b8154815290600101906020018083116108ea57829003601f168201915b5050505050908060010154905082565b61091f611260565b600047905060008111610967576040517f08c379a000000000000000000000000000000000000000000000000000000000815260040161095e90612738565b60405180910390fd5b61096f610b46565b73ffffffffffffffffffffffffffffffffffffffff166108fc829081150290604051600060405180830381858888f193505050501580156109b4573d6000803e3d6000fd5b5050565b6109d383838360405180602001604052806000815250610c18565b505050565b60006109e382610f4a565b9050919050565b600980546109f7906124eb565b80601f0160208091040260200160405190810160405280929190818152602001828054610a23906124eb565b8015610a705780601f10610a4557610100808354040283529160200191610a70565b820191906000526020600020905b815481529060010190602001808311610a5357829003601f168201915b505050505081565b60008073ffffffffffffffffffffffffffffffffffffffff168273ffffffffffffffffffffffffffffffffffffffff1603610aeb5760006040517f89c62b64000000000000000000000000000000000000000000000000000000008152600401610ae291906120f7565b60405180910390fd5b600360008373ffffffffffffffffffffffffffffffffffffffff1673ffffffffffffffffffffffffffffffffffffffff168152602001908152602001600020549050919050565b610b3a611260565b610b4460006112e7565b565b6000600760009054906101000a900473ffffffffffffffffffffffffffffffffffffffff16905090565b606060018054610b7f906124eb565b80601f0160208091040260200160405190810160405280929190818152602001828054610bab906124eb565b8015610bf85780601f10610bcd57610100808354040283529160200191610bf8565b820191906000526020600020905b815481529060010190602001808311610bdb57829003601f168201915b5050505050905090565b610c14610c0d61100f565b83836113ad565b5050565b610c23848484610759565b610c2f8484848461151c565b50505050565b6060610c4082610f4a565b506000600660008481526020019081526020016000208054610c61906124eb565b80601f0160208091040260200160405190810160405280929190818152602001828054610c8d906124eb565b8015610cda5780601f10610caf57610100808354040283529160200191610cda565b820191906000526020600020905b815481529060010190602001808311610cbd57829003601f168201915b505050505090506000610ceb6116d3565b90506000815103610d00578192505050610d43565b600082511115610d35578082604051602001610d1d929190612794565b60405160208183030381529060405292505050610d43565b610d3e846116ea565b925050505b919050565b60085481565b6000600560008473ffffffffffffffffffffffffffffffffffffffff1673ffffffffffffffffffffffffffffffffffffffff16815260200190815260200160002060008373ffffffffffffffffffffffffffffffffffffffff1673ffffffffffffffffffffffffffffffffffffffff16815260200190815260200160002060009054906101000a900460ff16905092915050565b610dea611260565b600073ffffffffffffffffffffffffffffffffffffffff168173ffffffffffffffffffffffffffffffffffffffff1603610e5c5760006040517f1e4fbdf7000000000000000000000000000000000000000000000000000000008152600401610e5391906120f7565b60405180910390fd5b610e65816112e7565b50565b60007f80ac58cd000000000000000000000000000000000000000000000000000000007bffffffffffffffffffffffffffffffffffffffffffffffffffffffff1916827bffffffffffffffffffffffffffffffffffffffffffffffffffffffff19161480610f3357507f5b5e139f000000000000000000000000000000000000000000000000000000007bffffffffffffffffffffffffffffffffffffffffffffffffffffffff1916827bffffffffffffffffffffffffffffffffffffffffffffffffffffffff1916145b80610f435750610f4282611753565b5b9050919050565b600080610f56836117bd565b9050600073ffffffffffffffffffffffffffffffffffffffff168173ffffffffffffffffffffffffffffffffffffffff1603610fc957826040517f7e273289000000000000000000000000000000000000000000000000000000008152600401610fc0919061223d565b60405180910390fd5b80915050919050565b60006004600083815260200190815260200160002060009054906101000a900473ffffffffffffffffffffffffffffffffffffffff169050919050565b600033905090565b61102483838360016117fa565b505050565b6110348484846119bf565b6110408484848461151c565b50505050565b600080611052846117bd565b9050600073ffffffffffffffffffffffffffffffffffffffff168373ffffffffffffffffffffffffffffffffffffffff161461109457611093818486611b2c565b5b600073ffffffffffffffffffffffffffffffffffffffff168173ffffffffffffffffffffffffffffffffffffffff1614611125576110d66000856000806117fa565b6001600360008373ffffffffffffffffffffffffffffffffffffffff1673ffffffffffffffffffffffffffffffffffffffff168152602001908152602001600020600082825403925050819055505b600073ffffffffffffffffffffffffffffffffffffffff168573ffffffffffffffffffffffffffffffffffffffff16146111a8576001600360008773ffffffffffffffffffffffffffffffffffffffff1673ffffffffffffffffffffffffffffffffffffffff168152602001908152602001600020600082825401925050819055505b846002600086815260200190815260200160002060006101000a81548173ffffffffffffffffffffffffffffffffffffffff021916908373ffffffffffffffffffffffffffffffffffffffff160217905550838573ffffffffffffffffffffffffffffffffffffffff168273ffffffffffffffffffffffffffffffffffffffff167fddf252ad1be2c89b69c2b068fc378daa952ba7f163c4a11628f55a4df523b3ef60405160405180910390a4809150509392505050565b61126861100f565b73ffffffffffffffffffffffffffffffffffffffff16611286610b46565b73ffffffffffffffffffffffffffffffffffffffff16146112e5576112a961100f565b6040517f118cdaa70000000000000000000000000000000000000000000000000000000081526004016112dc91906120f7565b60405180910390fd5b565b6000600760009054906101000a900473ffffffffffffffffffffffffffffffffffffffff16905081600760006101000a81548173ffffffffffffffffffffffffffffffffffffffff021916908373ffffffffffffffffffffffffffffffffffffffff1602179055508173ffffffffffffffffffffffffffffffffffffffff168173ffffffffffffffffffffffffffffffffffffffff167f8be0079c531659141344cd1fd0a4f28419497f9722a3daafe3b4186f6b6457e060405160405180910390a35050565b600073ffffffffffffffffffffffffffffffffffffffff168273ffffffffffffffffffffffffffffffffffffffff160361141e57816040517f5b08ba1800000000000000000000000000000000000000000000000000000000815260040161141591906120f7565b60405180910390fd5b80600560008573ffffffffffffffffffffffffffffffffffffffff1673ffffffffffffffffffffffffffffffffffffffff16815260200190815260200160002060008473ffffffffffffffffffffffffffffffffffffffff1673ffffffffffffffffffffffffffffffffffffffff16815260200190815260200160002060006101000a81548160ff0219169083151502179055508173ffffffffffffffffffffffffffffffffffffffff168373ffffffffffffffffffffffffffffffffffffffff167f17307eab39ab6107e8899845ad3d59bd9653f200f220920489ca2b5937696c318360405161150f9190611f86565b60405180910390a3505050565b60008373ffffffffffffffffffffffffffffffffffffffff163b11156116cd578273ffffffffffffffffffffffffffffffffffffffff1663150b7a0261156061100f565b8685856040518563ffffffff1660e01b8152600401611582949392919061280d565b6020604051808303816000875af19250505080156115be57506040513d601f19601f820116820180604052508101906115bb919061286e565b60015b611642573d80600081146115ee576040519150601f19603f3d011682016040523d82523d6000602084013e6115f3565b606091505b50600081510361163a57836040517f64a0ae9200000000000000000000000000000000000000000000000000000000815260040161163191906120f7565b60405180910390fd5b805181602001fd5b63150b7a0260e01b7bffffffffffffffffffffffffffffffffffffffffffffffffffffffff1916817bffffffffffffffffffffffffffffffffffffffffffffffffffffffff1916146116cb57836040517f64a0ae920000000000000000000000000000000000000000000000000000000081526004016116c291906120f7565b60405180910390fd5b505b50505050565b606060405180602001604052806000815250905090565b60606116f582610f4a565b5060006117006116d3565b90506000815111611720576040518060200160405280600081525061174b565b8061172a84611bf0565b60405160200161173b929190612794565b6040516020818303038152906040525b915050919050565b60007f01ffc9a7000000000000000000000000000000000000000000000000000000007bffffffffffffffffffffffffffffffffffffffffffffffffffffffff1916827bffffffffffffffffffffffffffffffffffffffffffffffffffffffff1916149050919050565b60006002600083815260200190815260200160002060009054906101000a900473ffffffffffffffffffffffffffffffffffffffff169050919050565b80806118335750600073ffffffffffffffffffffffffffffffffffffffff168273ffffffffffffffffffffffffffffffffffffffff1614155b1561196757600061184384610f4a565b9050600073ffffffffffffffffffffffffffffffffffffffff168373ffffffffffffffffffffffffffffffffffffffff16141580156118ae57508273ffffffffffffffffffffffffffffffffffffffff168173ffffffffffffffffffffffffffffffffffffffff1614155b80156118c157506118bf8184610d4e565b155b1561190357826040517fa9fbf51f0000000000000000000000000000000000000000000000000000000081526004016118fa91906120f7565b60405180910390fd5b811561196557838573ffffffffffffffffffffffffffffffffffffffff168273ffffffffffffffffffffffffffffffffffffffff167f8c5be1e5ebec7d5bd14f71427d1e84f3dd0314c0f7b2291e5b200ac8c7c3b92560405160405180910390a45b505b836004600085815260200190815260200160002060006101000a81548173ffffffffffffffffffffffffffffffffffffffff021916908373ffffffffffffffffffffffffffffffffffffffff16021790555050505050565b600073ffffffffffffffffffffffffffffffffffffffff168273ffffffffffffffffffffffffffffffffffffffff1603611a315760006040517f64a0ae92000000000000000000000000000000000000000000000000000000008152600401611a2891906120f7565b60405180910390fd5b6000611a3f83836000611046565b9050600073ffffffffffffffffffffffffffffffffffffffff168173ffffffffffffffffffffffffffffffffffffffff1603611ab257816040517f7e273289000000000000000000000000000000000000000000000000000000008152600401611aa9919061223d565b60405180910390fd5b8373ffffffffffffffffffffffffffffffffffffffff168173ffffffffffffffffffffffffffffffffffffffff1614611b26578382826040517f64283d7b000000000000000000000000000000000000000000000000000000008152600401611b1d939291906126b5565b60405180910390fd5b50505050565b611b37838383611cbe565b611beb57600073ffffffffffffffffffffffffffffffffffffffff168373ffffffffffffffffffffffffffffffffffffffff1603611bac57806040517f7e273289000000000000000000000000000000000000000000000000000000008152600401611ba3919061223d565b60405180910390fd5b81816040517f177e802f000000000000000000000000000000000000000000000000000000008152600401611be292919061289b565b60405180910390fd5b505050565b606060006001611bff84611d7f565b01905060008167ffffffffffffffff811115611c1e57611c1d6122ce565b5b6040519080825280601f01601f191660200182016040528015611c505781602001600182028036833780820191505090505b509050600082602001820190505b600115611cb3578080600190039150507f3031323334353637383961626364656600000000000000000000000000000000600a86061a8153600a8581611ca757611ca66128c4565b5b04945060008503611c5e575b819350505050919050565b60008073ffffffffffffffffffffffffffffffffffffffff168373ffffffffffffffffffffffffffffffffffffffff1614158015611d7657508273ffffffffffffffffffffffffffffffffffffffff168473ffffffffffffffffffffffffffffffffffffffff161480611d375750611d368484610d4e565b5b80611d7557508273ffffffffffffffffffffffffffffffffffffffff16611d5d83610fd2565b73ffffffffffffffffffffffffffffffffffffffff16145b5b90509392505050565b600080600090507a184f03e93ff9f4daa797ed6e38ed64bf6a1f0100000000000000008310611ddd577a184f03e93ff9f4daa797ed6e38ed64bf6a1f0100000000000000008381611dd357611dd26128c4565b5b0492506040810190505b6d04ee2d6d415b85acef81000000008310611e1a576d04ee2d6d415b85acef81000000008381611e1057611e0f6128c4565b5b0492506020810190505b662386f26fc100008310611e4957662386f26fc100008381611e3f57611e3e6128c4565b5b0492506010810190505b6305f5e1008310611e72576305f5e1008381611e6857611e676128c4565b5b0492506008810190505b6127108310611e97576127108381611e8d57611e8c6128c4565b5b0492506004810190505b60648310611eba5760648381611eb057611eaf6128c4565b5b0492506002810190505b600a8310611ec9576001810190505b80915050919050565b6000604051905090565b600080fd5b600080fd5b60007fffffffff0000000000000000000000000000000000000000000000000000000082169050919050565b611f1b81611ee6565b8114611f2657600080fd5b50565b600081359050611f3881611f12565b92915050565b600060208284031215611f5457611f53611edc565b5b6000611f6284828501611f29565b91505092915050565b60008115159050919050565b611f8081611f6b565b82525050565b6000602082019050611f9b6000830184611f77565b92915050565b600081519050919050565b600082825260208201905092915050565b60005b83811015611fdb578082015181840152602081019050611fc0565b60008484015250505050565b6000601f19601f8301169050919050565b600061200382611fa1565b61200d8185611fac565b935061201d818560208601611fbd565b61202681611fe7565b840191505092915050565b6000602082019050818103600083015261204b8184611ff8565b905092915050565b6000819050919050565b61206681612053565b811461207157600080fd5b50565b6000813590506120838161205d565b92915050565b60006020828403121561209f5761209e611edc565b5b60006120ad84828501612074565b91505092915050565b600073ffffffffffffffffffffffffffffffffffffffff82169050919050565b60006120e1826120b6565b9050919050565b6120f1816120d6565b82525050565b600060208201905061210c60008301846120e8565b92915050565b61211b816120d6565b811461212657600080fd5b50565b60008135905061213881612112565b92915050565b6000806040838503121561215557612154611edc565b5b600061216385828601612129565b925050602061217485828601612074565b9150509250929050565b60008060006060848603121561219757612196611edc565b5b60006121a586828701612129565b93505060206121b686828701612129565b92505060406121c786828701612074565b9150509250925092565b6121da81612053565b82525050565b600060408201905081810360008301526121fa8185611ff8565b905061220960208301846121d1565b9392505050565b60006020828403121561222657612225611edc565b5b600061223484828501612129565b91505092915050565b600060208201905061225260008301846121d1565b92915050565b61226181611f6b565b811461226c57600080fd5b50565b60008135905061227e81612258565b92915050565b6000806040838503121561229b5761229a611edc565b5b60006122a985828601612129565b92505060206122ba8582860161226f565b9150509250929050565b600080fd5b600080fd5b7f4e487b7100000000000000000000000000000000000000000000000000000000600052604160045260246000fd5b61230682611fe7565b810181811067ffffffffffffffff82111715612325576123246122ce565b5b80604052505050565b6000612338611ed2565b905061234482826122fd565b919050565b600067ffffffffffffffff821115612364576123636122ce565b5b61236d82611fe7565b9050602081019050919050565b82818337600083830152505050565b600061239c61239784612349565b61232e565b9050828152602081018484840111156123b8576123b76122c9565b5b6123c384828561237a565b509392505050565b600082601f8301126123e0576123df6122c4565b5b81356123f0848260208601612389565b91505092915050565b6000806000806080858703121561241357612412611edc565b5b600061242187828801612129565b945050602061243287828801612129565b935050604061244387828801612074565b925050606085013567ffffffffffffffff81111561246457612463611ee1565b5b612470878288016123cb565b91505092959194509250565b6000806040838503121561249357612492611edc565b5b60006124a185828601612129565b92505060206124b285828601612129565b9150509250929050565b7f4e487b7100000000000000000000000000000000000000000000000000000000600052602260045260246000fd5b6000600282049050600182168061250357607f821691505b602082108103612516576125156124bc565b5b50919050565b7f496e76616c696420746f6b656e20494400000000000000000000000000000000600082015250565b6000612552601083611fac565b915061255d8261251c565b602082019050919050565b6000602082019050818103600083015261258181612545565b9050919050565b7f4e487b7100000000000000000000000000000000000000000000000000000000600052603260045260246000fd5b7f496e636f7272656374206e617469766520746f6b656e2076616c75652073656e60008201527f742e000000000000000000000000000000000000000000000000000000000000602082015250565b6000612613602283611fac565b915061261e826125b7565b604082019050919050565b6000602082019050818103600083015261264281612606565b9050919050565b7f4e465420616c7265616479207075726368617365642e00000000000000000000600082015250565b600061267f601683611fac565b915061268a82612649565b602082019050919050565b600060208201905081810360008301526126ae81612672565b9050919050565b60006060820190506126ca60008301866120e8565b6126d760208301856121d1565b6126e460408301846120e8565b949350505050565b7f4e6f206e617469766520746f6b656e20746f2077697468647261772e00000000600082015250565b6000612722601c83611fac565b915061272d826126ec565b602082019050919050565b6000602082019050818103600083015261275181612715565b9050919050565b600081905092915050565b600061276e82611fa1565b6127788185612758565b9350612788818560208601611fbd565b80840191505092915050565b60006127a08285612763565b91506127ac8284612763565b91508190509392505050565b600081519050919050565b600082825260208201905092915050565b60006127df826127b8565b6127e981856127c3565b93506127f9818560208601611fbd565b61280281611fe7565b840191505092915050565b600060808201905061282260008301876120e8565b61282f60208301866120e8565b61283c60408301856121d1565b818103606083015261284e81846127d4565b905095945050505050565b60008151905061286881611f12565b92915050565b60006020828403121561288457612883611edc565b5b600061289284828501612859565b91505092915050565b60006040820190506128b060008301856120e8565b6128bd60208301846121d1565b9392505050565b7f4e487b7100000000000000000000000000000000000000000000000000000000600052601260045260246000fdfea264697066735822122019e009cb875562b6c8ae545a47012b41d63814ce478118252d56d0dfb4bc901b64736f6c63430008180033",
  "linkReferences": {},
  "deployedLinkReferences": {}
}