{
  "_format": "hh-sol-artifact-1",
  "contractName": "SimpleBatchMintERC1155NFT",
  "sourceName": "contracts/SimpleBatchMintERC1155NFT.sol",
  "abi": [
    {
      "inputs": [],
      "stateMutability": "nonpayable",
      "type": "constructor"
    },
    {
      "inputs": [
        {
          "internalType": "address",
          "name": "sender",
          "type": "address"
        },
        {
          "internalType": "uint256",
          "name": "balance",
          "type": "uint256"
        },
        {
          "internalType": "uint256",
          "name": "needed",
          "type": "uint256"
        },
        {
          "internalType": "uint256",
          "name": "tokenId",
          "type": "uint256"
        }
      ],
      "name": "ERC1155InsufficientBalance",
      "type": "error"
    },
    {
      "inputs": [
        {
          "internalType": "address",
          "name": "approver",
          "type": "address"
        }
      ],
      "name": "ERC1155InvalidApprover",
      "type": "error"
    },
    {
      "inputs": [
        {
          "internalType": "uint256",
          "name": "idsLength",
          "type": "uint256"
        },
        {
          "internalType": "uint256",
          "name": "valuesLength",
          "type": "uint256"
        }
      ],
      "name": "ERC1155InvalidArrayLength",
      "type": "error"
    },
    {
      "inputs": [
        {
          "internalType": "address",
          "name": "operator",
          "type": "address"
        }
      ],
      "name": "ERC1155InvalidOperator",
      "type": "error"
    },
    {
      "inputs": [
        {
          "internalType": "address",
          "name": "receiver",
          "type": "address"
        }
      ],
      "name": "ERC1155InvalidReceiver",
      "type": "error"
    },
    {
      "inputs": [
        {
          "internalType": "address",
          "name": "sender",
          "type": "address"
        }
      ],
      "name": "ERC1155InvalidSender",
      "type": "error"
    },
    {
      "inputs": [
        {
          "internalType": "address",
          "name": "operator",
          "type": "address"
        },
        {
          "internalType": "address",
          "name": "owner",
          "type": "address"
        }
      ],
      "name": "ERC1155MissingApprovalForAll",
      "type": "error"
    },
    {
      "inputs": [
        {
          "internalType": "address",
          "name": "owner",
          "type": "address"
        }
      ],
      "name": "OwnableInvalidOwner",
      "type": "error"
    },
    {
      "inputs": [
        {
          "internalType": "address",
          "name": "account",
          "type": "address"
        }
      ],
      "name": "OwnableUnauthorizedAccount",
      "type": "error"
    },
    {
      "anonymous": false,
      "inputs": [
        {
          "indexed": true,
          "internalType": "address",
          "name": "account",
          "type": "address"
        },
        {
          "indexed": true,
          "internalType": "address",
          "name": "operator",
          "type": "address"
        },
        {
          "indexed": false,
          "internalType": "bool",
          "name": "approved",
          "type": "bool"
        }
      ],
      "name": "ApprovalForAll",
      "type": "event"
    },
    {
      "anonymous": false,
      "inputs": [
        {
          "indexed": true,
          "internalType": "address",
          "name": "previousOwner",
          "type": "address"
        },
        {
          "indexed": true,
          "internalType": "address",
          "name": "newOwner",
          "type": "address"
        }
      ],
      "name": "OwnershipTransferred",
      "type": "event"
    },
    {
      "anonymous": false,
      "inputs": [
        {
          "indexed": true,
          "internalType": "address",
          "name": "operator",
          "type": "address"
        },
        {
          "indexed": true,
          "internalType": "address",
          "name": "from",
          "type": "address"
        },
        {
          "indexed": true,
          "internalType": "address",
          "name": "to",
          "type": "address"
        },
        {
          "indexed": false,
          "internalType": "uint256[]",
          "name": "ids",
          "type": "uint256[]"
        },
        {
          "indexed": false,
          "internalType": "uint256[]",
          "name": "values",
          "type": "uint256[]"
        }
      ],
      "name": "TransferBatch",
      "type": "event"
    },
    {
      "anonymous": false,
      "inputs": [
        {
          "indexed": true,
          "internalType": "address",
          "name": "operator",
          "type": "address"
        },
        {
          "indexed": true,
          "internalType": "address",
          "name": "from",
          "type": "address"
        },
        {
          "indexed": true,
          "internalType": "address",
          "name": "to",
          "type": "address"
        },
        {
          "indexed": false,
          "internalType": "uint256",
          "name": "id",
          "type": "uint256"
        },
        {
          "indexed": false,
          "internalType": "uint256",
          "name": "value",
          "type": "uint256"
        }
      ],
      "name": "TransferSingle",
      "type": "event"
    },
    {
      "anonymous": false,
      "inputs": [
        {
          "indexed": false,
          "internalType": "string",
          "name": "value",
          "type": "string"
        },
        {
          "indexed": true,
          "internalType": "uint256",
          "name": "id",
          "type": "uint256"
        }
      ],
      "name": "URI",
      "type": "event"
    },
    {
      "inputs": [
        {
          "internalType": "address",
          "name": "account",
          "type": "address"
        },
        {
          "internalType": "uint256",
          "name": "id",
          "type": "uint256"
        }
      ],
      "name": "balanceOf",
      "outputs": [
        {
          "internalType": "uint256",
          "name": "",
          "type": "uint256"
        }
      ],
      "stateMutability": "view",
      "type": "function"
    },
    {
      "inputs": [
        {
          "internalType": "address[]",
          "name": "accounts",
          "type": "address[]"
        },
        {
          "internalType": "uint256[]",
          "name": "ids",
          "type": "uint256[]"
        }
      ],
      "name": "balanceOfBatch",
      "outputs": [
        {
          "internalType": "uint256[]",
          "name": "",
          "type": "uint256[]"
        }
      ],
      "stateMutability": "view",
      "type": "function"
    },
    {
      "inputs": [
        {
          "internalType": "address",
          "name": "account",
          "type": "address"
        },
        {
          "internalType": "address",
          "name": "operator",
          "type": "address"
        }
      ],
      "name": "isApprovedForAll",
      "outputs": [
        {
          "internalType": "bool",
          "name": "",
          "type": "bool"
        }
      ],
      "stateMutability": "view",
      "type": "function"
    },
    {
      "inputs": [
        {
          "internalType": "uint256",
          "name": "numTokens",
          "type": "uint256"
        }
      ],
      "name": "mintBatchNFT",
      "outputs": [],
      "stateMutability": "nonpayable",
      "type": "function"
    },
    {
      "inputs": [
        {
          "internalType": "uint256",
          "name": "",
          "type": "uint256"
        }
      ],
      "name": "nftData",
      "outputs": [
        {
          "internalType": "string",
          "name": "name",
          "type": "string"
        },
        {
          "internalType": "string",
          "name": "collection",
          "type": "string"
        },
        {
          "internalType": "string",
          "name": "metadata",
          "type": "string"
        }
      ],
      "stateMutability": "view",
      "type": "function"
    },
    {
      "inputs": [],
      "name": "owner",
      "outputs": [
        {
          "internalType": "address",
          "name": "",
          "type": "address"
        }
      ],
      "stateMutability": "view",
      "type": "function"
    },
    {
      "inputs": [],
      "name": "renounceOwnership",
      "outputs": [],
      "stateMutability": "nonpayable",
      "type": "function"
    },
    {
      "inputs": [
        {
          "internalType": "address",
          "name": "from",
          "type": "address"
        },
        {
          "internalType": "address",
          "name": "to",
          "type": "address"
        },
        {
          "internalType": "uint256[]",
          "name": "ids",
          "type": "uint256[]"
        },
        {
          "internalType": "uint256[]",
          "name": "values",
          "type": "uint256[]"
        },
        {
          "internalType": "bytes",
          "name": "data",
          "type": "bytes"
        }
      ],
      "name": "safeBatchTransferFrom",
      "outputs": [],
      "stateMutability": "nonpayable",
      "type": "function"
    },
    {
      "inputs": [
        {
          "internalType": "address",
          "name": "from",
          "type": "address"
        },
        {
          "internalType": "address",
          "name": "to",
          "type": "address"
        },
        {
          "internalType": "uint256",
          "name": "id",
          "type": "uint256"
        },
        {
          "internalType": "uint256",
          "name": "value",
          "type": "uint256"
        },
        {
          "internalType": "bytes",
          "name": "data",
          "type": "bytes"
        }
      ],
      "name": "safeTransferFrom",
      "outputs": [],
      "stateMutability": "nonpayable",
      "type": "function"
    },
    {
      "inputs": [
        {
          "internalType": "address",
          "name": "operator",
          "type": "address"
        },
        {
          "internalType": "bool",
          "name": "approved",
          "type": "bool"
        }
      ],
      "name": "setApprovalForAll",
      "outputs": [],
      "stateMutability": "nonpayable",
      "type": "function"
    },
    {
      "inputs": [
        {
          "internalType": "bytes4",
          "name": "interfaceId",
          "type": "bytes4"
        }
      ],
      "name": "supportsInterface",
      "outputs": [
        {
          "internalType": "bool",
          "name": "",
          "type": "bool"
        }
      ],
      "stateMutability": "view",
      "type": "function"
    },
    {
      "inputs": [
        {
          "internalType": "address",
          "name": "newOwner",
          "type": "address"
        }
      ],
      "name": "transferOwnership",
      "outputs": [],
      "stateMutability": "nonpayable",
      "type": "function"
    },
    {
      "inputs": [
        {
          "internalType": "uint256",
          "name": "",
          "type": "uint256"
        }
      ],
      "name": "uri",
      "outputs": [
        {
          "internalType": "string",
          "name": "",
          "type": "string"
        }
      ],
      "stateMutability": "view",
      "type": "function"
    }
  ],
  "bytecode": "0x608060405260006005553480156200001657600080fd5b50336040518060400160405280601481526020017f68747470733a2f2f6578616d706c652e636f6d2f0000000000000000000000008152506200005f81620000ed60201b60201c565b50600073ffffffffffffffffffffffffffffffffffffffff168173ffffffffffffffffffffffffffffffffffffffff1603620000d55760006040517f1e4fbdf7000000000000000000000000000000000000000000000000000000008152600401620000cc91906200020d565b60405180910390fd5b620000e6816200010260201b60201c565b506200058b565b8060029081620000fe9190620004a4565b5050565b6000600360009054906101000a900473ffffffffffffffffffffffffffffffffffffffff16905081600360006101000a81548173ffffffffffffffffffffffffffffffffffffffff021916908373ffffffffffffffffffffffffffffffffffffffff1602179055508173ffffffffffffffffffffffffffffffffffffffff168173ffffffffffffffffffffffffffffffffffffffff167f8be0079c531659141344cd1fd0a4f28419497f9722a3daafe3b4186f6b6457e060405160405180910390a35050565b600073ffffffffffffffffffffffffffffffffffffffff82169050919050565b6000620001f582620001c8565b9050919050565b6200020781620001e8565b82525050565b6000602082019050620002246000830184620001fc565b92915050565b600081519050919050565b7f4e487b7100000000000000000000000000000000000000000000000000000000600052604160045260246000fd5b7f4e487b7100000000000000000000000000000000000000000000000000000000600052602260045260246000fd5b60006002820490506001821680620002ac57607f821691505b602082108103620002c257620002c162000264565b5b50919050565b60008190508160005260206000209050919050565b60006020601f8301049050919050565b600082821b905092915050565b6000600883026200032c7fffffffffffffffffffffffffffffffffffffffffffffffffffffffffffffffff82620002ed565b620003388683620002ed565b95508019841693508086168417925050509392505050565b6000819050919050565b6000819050919050565b6000620003856200037f620003798462000350565b6200035a565b62000350565b9050919050565b6000819050919050565b620003a18362000364565b620003b9620003b0826200038c565b848454620002fa565b825550505050565b600090565b620003d0620003c1565b620003dd81848462000396565b505050565b5b818110156200040557620003f9600082620003c6565b600181019050620003e3565b5050565b601f82111562000454576200041e81620002c8565b6200042984620002dd565b8101602085101562000439578190505b620004516200044885620002dd565b830182620003e2565b50505b505050565b600082821c905092915050565b6000620004796000198460080262000459565b1980831691505092915050565b600062000494838362000466565b9150826002028217905092915050565b620004af826200022a565b67ffffffffffffffff811115620004cb57620004ca62000235565b5b620004d7825462000293565b620004e482828562000409565b600060209050601f8311600181146200051c576000841562000507578287015190505b62000513858262000486565b86555062000583565b601f1984166200052c86620002c8565b60005b8281101562000556578489015182556001820191506020850194506020810190506200052f565b8683101562000576578489015162000572601f89168262000466565b8355505b6001600288020188555050505b505050505050565b612a62806200059b6000396000f3fe608060405234801561001057600080fd5b50600436106100ce5760003560e01c80638c2109751161008c578063b010f82611610066578063b010f82614610225578063e985e9c514610241578063f242432a14610271578063f2fde38b1461028d576100ce565b80638c210975146101b95780638da5cb5b146101eb578063a22cb46514610209576100ce565b8062fdd58e146100d357806301ffc9a7146101035780630e89341c146101335780632eb2c2d6146101635780634e1273f41461017f578063715018a6146101af575b600080fd5b6100ed60048036038101906100e89190611b10565b6102a9565b6040516100fa9190611b5f565b60405180910390f35b61011d60048036038101906101189190611bd2565b610303565b60405161012a9190611c1a565b60405180910390f35b61014d60048036038101906101489190611c35565b6103e5565b60405161015a9190611cf2565b60405180910390f35b61017d60048036038101906101789190611f11565b610479565b005b610199600480360381019061019491906120a3565b610521565b6040516101a691906121d9565b60405180910390f35b6101b761062a565b005b6101d360048036038101906101ce9190611c35565b61063e565b6040516101e2939291906121fb565b60405180910390f35b6101f3610800565b6040516102009190612256565b60405180910390f35b610223600480360381019061021e919061229d565b61082a565b005b61023f600480360381019061023a9190611c35565b610840565b005b61025b600480360381019061025691906122dd565b610ad4565b6040516102689190611c1a565b60405180910390f35b61028b6004803603810190610286919061231d565b610b68565b005b6102a760048036038101906102a291906123b4565b610c10565b005b600080600083815260200190815260200160002060008473ffffffffffffffffffffffffffffffffffffffff1673ffffffffffffffffffffffffffffffffffffffff16815260200190815260200160002054905092915050565b60007fd9b67a26000000000000000000000000000000000000000000000000000000007bffffffffffffffffffffffffffffffffffffffffffffffffffffffff1916827bffffffffffffffffffffffffffffffffffffffffffffffffffffffff191614806103ce57507f0e89341c000000000000000000000000000000000000000000000000000000007bffffffffffffffffffffffffffffffffffffffffffffffffffffffff1916827bffffffffffffffffffffffffffffffffffffffffffffffffffffffff1916145b806103de57506103dd82610c96565b5b9050919050565b6060600280546103f490612410565b80601f016020809104026020016040519081016040528092919081815260200182805461042090612410565b801561046d5780601f106104425761010080835404028352916020019161046d565b820191906000526020600020905b81548152906001019060200180831161045057829003601f168201915b50505050509050919050565b6000610483610d00565b90508073ffffffffffffffffffffffffffffffffffffffff168673ffffffffffffffffffffffffffffffffffffffff16141580156104c857506104c68682610ad4565b155b1561050c5780866040517fe237d922000000000000000000000000000000000000000000000000000000008152600401610503929190612441565b60405180910390fd5b6105198686868686610d08565b505050505050565b6060815183511461056d57815183516040517f5b05999100000000000000000000000000000000000000000000000000000000815260040161056492919061246a565b60405180910390fd5b6000835167ffffffffffffffff81111561058a57610589611d19565b5b6040519080825280602002602001820160405280156105b85781602001602082028036833780820191505090505b50905060005b845181101561061f576105f56105dd8287610e0090919063ffffffff16565b6105f08387610e1490919063ffffffff16565b6102a9565b82828151811061060857610607612493565b5b6020026020010181815250508060010190506105be565b508091505092915050565b610632610e28565b61063c6000610eaf565b565b600460205280600052604060002060009150905080600001805461066190612410565b80601f016020809104026020016040519081016040528092919081815260200182805461068d90612410565b80156106da5780601f106106af576101008083540402835291602001916106da565b820191906000526020600020905b8154815290600101906020018083116106bd57829003601f168201915b5050505050908060010180546106ef90612410565b80601f016020809104026020016040519081016040528092919081815260200182805461071b90612410565b80156107685780601f1061073d57610100808354040283529160200191610768565b820191906000526020600020905b81548152906001019060200180831161074b57829003601f168201915b50505050509080600201805461077d90612410565b80601f01602080910402602001604051908101604052809291908181526020018280546107a990612410565b80156107f65780601f106107cb576101008083540402835291602001916107f6565b820191906000526020600020905b8154815290600101906020018083116107d957829003601f168201915b5050505050905083565b6000600360009054906101000a900473ffffffffffffffffffffffffffffffffffffffff16905090565b61083c610835610d00565b8383610f75565b5050565b610848610e28565b6000811161088b576040517f08c379a00000000000000000000000000000000000000000000000000000000081526004016108829061250e565b60405180910390fd5b60008167ffffffffffffffff8111156108a7576108a6611d19565b5b6040519080825280602002602001820160405280156108d55781602001602082028036833780820191505090505b50905060008267ffffffffffffffff8111156108f4576108f3611d19565b5b6040519080825280602002602001820160405280156109225781602001602082028036833780820191505090505b50905060005b83811015610aac57600560008154809291906109439061255d565b919050555060055483828151811061095e5761095d612493565b5b602002602001018181525050600182828151811061097f5761097e612493565b5b60200260200101818152505060405180606001604052806040518060400160405280600481526020017f6e616d650000000000000000000000000000000000000000000000000000000081525081526020016040518060400160405280600a81526020017f636f6c6c656374696f6e0000000000000000000000000000000000000000000081525081526020016040518060400160405280600881526020017f6d657461646174610000000000000000000000000000000000000000000000008152508152506004600060055481526020019081526020016000206000820151816000019081610a6f9190612751565b506020820151816001019081610a859190612751565b506040820151816002019081610a9b9190612751565b509050508080600101915050610928565b50610acf610ab8610800565b8383604051806020016040528060008152506110e5565b505050565b6000600160008473ffffffffffffffffffffffffffffffffffffffff1673ffffffffffffffffffffffffffffffffffffffff16815260200190815260200160002060008373ffffffffffffffffffffffffffffffffffffffff1673ffffffffffffffffffffffffffffffffffffffff16815260200190815260200160002060009054906101000a900460ff16905092915050565b6000610b72610d00565b90508073ffffffffffffffffffffffffffffffffffffffff168673ffffffffffffffffffffffffffffffffffffffff1614158015610bb75750610bb58682610ad4565b155b15610bfb5780866040517fe237d922000000000000000000000000000000000000000000000000000000008152600401610bf2929190612441565b60405180910390fd5b610c08868686868661116b565b505050505050565b610c18610e28565b600073ffffffffffffffffffffffffffffffffffffffff168173ffffffffffffffffffffffffffffffffffffffff1603610c8a5760006040517f1e4fbdf7000000000000000000000000000000000000000000000000000000008152600401610c819190612256565b60405180910390fd5b610c9381610eaf565b50565b60007f01ffc9a7000000000000000000000000000000000000000000000000000000007bffffffffffffffffffffffffffffffffffffffffffffffffffffffff1916827bffffffffffffffffffffffffffffffffffffffffffffffffffffffff1916149050919050565b600033905090565b600073ffffffffffffffffffffffffffffffffffffffff168473ffffffffffffffffffffffffffffffffffffffff1603610d7a5760006040517f57f447ce000000000000000000000000000000000000000000000000000000008152600401610d719190612256565b60405180910390fd5b600073ffffffffffffffffffffffffffffffffffffffff168573ffffffffffffffffffffffffffffffffffffffff1603610dec5760006040517f01a83514000000000000000000000000000000000000000000000000000000008152600401610de39190612256565b60405180910390fd5b610df98585858585611276565b5050505050565b600060208202602084010151905092915050565b600060208202602084010151905092915050565b610e30610d00565b73ffffffffffffffffffffffffffffffffffffffff16610e4e610800565b73ffffffffffffffffffffffffffffffffffffffff1614610ead57610e71610d00565b6040517f118cdaa7000000000000000000000000000000000000000000000000000000008152600401610ea49190612256565b60405180910390fd5b565b6000600360009054906101000a900473ffffffffffffffffffffffffffffffffffffffff16905081600360006101000a81548173ffffffffffffffffffffffffffffffffffffffff021916908373ffffffffffffffffffffffffffffffffffffffff1602179055508173ffffffffffffffffffffffffffffffffffffffff168173ffffffffffffffffffffffffffffffffffffffff167f8be0079c531659141344cd1fd0a4f28419497f9722a3daafe3b4186f6b6457e060405160405180910390a35050565b600073ffffffffffffffffffffffffffffffffffffffff168273ffffffffffffffffffffffffffffffffffffffff1603610fe75760006040517fced3e100000000000000000000000000000000000000000000000000000000008152600401610fde9190612256565b60405180910390fd5b80600160008573ffffffffffffffffffffffffffffffffffffffff1673ffffffffffffffffffffffffffffffffffffffff16815260200190815260200160002060008473ffffffffffffffffffffffffffffffffffffffff1673ffffffffffffffffffffffffffffffffffffffff16815260200190815260200160002060006101000a81548160ff0219169083151502179055508173ffffffffffffffffffffffffffffffffffffffff168373ffffffffffffffffffffffffffffffffffffffff167f17307eab39ab6107e8899845ad3d59bd9653f200f220920489ca2b5937696c31836040516110d89190611c1a565b60405180910390a3505050565b600073ffffffffffffffffffffffffffffffffffffffff168473ffffffffffffffffffffffffffffffffffffffff16036111575760006040517f57f447ce00000000000000000000000000000000000000000000000000000000815260040161114e9190612256565b60405180910390fd5b611165600085858585611276565b50505050565b600073ffffffffffffffffffffffffffffffffffffffff168473ffffffffffffffffffffffffffffffffffffffff16036111dd5760006040517f57f447ce0000000000000000000000000000000000000000000000000000000081526004016111d49190612256565b60405180910390fd5b600073ffffffffffffffffffffffffffffffffffffffff168573ffffffffffffffffffffffffffffffffffffffff160361124f5760006040517f01a835140000000000000000000000000000000000000000000000000000000081526004016112469190612256565b60405180910390fd5b60008061125c8585611328565b9150915061126d8787848487611276565b50505050505050565b61128285858585611358565b600073ffffffffffffffffffffffffffffffffffffffff168473ffffffffffffffffffffffffffffffffffffffff16146113215760006112c0610d00565b905060018451036113105760006112e1600086610e1490919063ffffffff16565b905060006112f9600086610e1490919063ffffffff16565b9050611309838989858589611700565b505061131f565b61131e8187878787876118b4565b5b505b5050505050565b60608060405191506001825283602083015260408201905060018152826020820152604081016040529250929050565b80518251146113a257815181516040517f5b05999100000000000000000000000000000000000000000000000000000000815260040161139992919061246a565b60405180910390fd5b60006113ac610d00565b905060005b83518110156115bb5760006113cf8286610e1490919063ffffffff16565b905060006113e68386610e1490919063ffffffff16565b9050600073ffffffffffffffffffffffffffffffffffffffff168873ffffffffffffffffffffffffffffffffffffffff161461151357600080600084815260200190815260200160002060008a73ffffffffffffffffffffffffffffffffffffffff1673ffffffffffffffffffffffffffffffffffffffff168152602001908152602001600020549050818110156114bb57888183856040517f03dee4c50000000000000000000000000000000000000000000000000000000081526004016114b29493929190612823565b60405180910390fd5b81810360008085815260200190815260200160002060008b73ffffffffffffffffffffffffffffffffffffffff1673ffffffffffffffffffffffffffffffffffffffff16815260200190815260200160002081905550505b600073ffffffffffffffffffffffffffffffffffffffff168773ffffffffffffffffffffffffffffffffffffffff16146115ae578060008084815260200190815260200160002060008973ffffffffffffffffffffffffffffffffffffffff1673ffffffffffffffffffffffffffffffffffffffff16815260200190815260200160002060008282546115a69190612868565b925050819055505b50508060010190506113b1565b50600183510361167a5760006115db600085610e1490919063ffffffff16565b905060006115f3600085610e1490919063ffffffff16565b90508573ffffffffffffffffffffffffffffffffffffffff168773ffffffffffffffffffffffffffffffffffffffff168473ffffffffffffffffffffffffffffffffffffffff167fc3d58168c5ae7397731d063d5bbf3d657854427343f4c083240f7aacaa2d0f62858560405161166b92919061246a565b60405180910390a450506116f9565b8373ffffffffffffffffffffffffffffffffffffffff168573ffffffffffffffffffffffffffffffffffffffff168273ffffffffffffffffffffffffffffffffffffffff167f4a39dc06d4c0dbc64b70af90fd698a233a518aa5d07e595d983b8c0526c8f7fb86866040516116f092919061289c565b60405180910390a45b5050505050565b60008473ffffffffffffffffffffffffffffffffffffffff163b11156118ac578373ffffffffffffffffffffffffffffffffffffffff1663f23a6e6187878686866040518663ffffffff1660e01b8152600401611761959493929190612928565b6020604051808303816000875af192505050801561179d57506040513d601f19601f8201168201806040525081019061179a9190612997565b60015b611821573d80600081146117cd576040519150601f19603f3d011682016040523d82523d6000602084013e6117d2565b606091505b50600081510361181957846040517f57f447ce0000000000000000000000000000000000000000000000000000000081526004016118109190612256565b60405180910390fd5b805181602001fd5b63f23a6e6160e01b7bffffffffffffffffffffffffffffffffffffffffffffffffffffffff1916817bffffffffffffffffffffffffffffffffffffffffffffffffffffffff1916146118aa57846040517f57f447ce0000000000000000000000000000000000000000000000000000000081526004016118a19190612256565b60405180910390fd5b505b505050505050565b60008473ffffffffffffffffffffffffffffffffffffffff163b1115611a60578373ffffffffffffffffffffffffffffffffffffffff1663bc197c8187878686866040518663ffffffff1660e01b81526004016119159594939291906129c4565b6020604051808303816000875af192505050801561195157506040513d601f19601f8201168201806040525081019061194e9190612997565b60015b6119d5573d8060008114611981576040519150601f19603f3d011682016040523d82523d6000602084013e611986565b606091505b5060008151036119cd57846040517f57f447ce0000000000000000000000000000000000000000000000000000000081526004016119c49190612256565b60405180910390fd5b805181602001fd5b63bc197c8160e01b7bffffffffffffffffffffffffffffffffffffffffffffffffffffffff1916817bffffffffffffffffffffffffffffffffffffffffffffffffffffffff191614611a5e57846040517f57f447ce000000000000000000000000000000000000000000000000000000008152600401611a559190612256565b60405180910390fd5b505b505050505050565b6000604051905090565b600080fd5b600080fd5b600073ffffffffffffffffffffffffffffffffffffffff82169050919050565b6000611aa782611a7c565b9050919050565b611ab781611a9c565b8114611ac257600080fd5b50565b600081359050611ad481611aae565b92915050565b6000819050919050565b611aed81611ada565b8114611af857600080fd5b50565b600081359050611b0a81611ae4565b92915050565b60008060408385031215611b2757611b26611a72565b5b6000611b3585828601611ac5565b9250506020611b4685828601611afb565b9150509250929050565b611b5981611ada565b82525050565b6000602082019050611b746000830184611b50565b92915050565b60007fffffffff0000000000000000000000000000000000000000000000000000000082169050919050565b611baf81611b7a565b8114611bba57600080fd5b50565b600081359050611bcc81611ba6565b92915050565b600060208284031215611be857611be7611a72565b5b6000611bf684828501611bbd565b91505092915050565b60008115159050919050565b611c1481611bff565b82525050565b6000602082019050611c2f6000830184611c0b565b92915050565b600060208284031215611c4b57611c4a611a72565b5b6000611c5984828501611afb565b91505092915050565b600081519050919050565b600082825260208201905092915050565b60005b83811015611c9c578082015181840152602081019050611c81565b60008484015250505050565b6000601f19601f8301169050919050565b6000611cc482611c62565b611cce8185611c6d565b9350611cde818560208601611c7e565b611ce781611ca8565b840191505092915050565b60006020820190508181036000830152611d0c8184611cb9565b905092915050565b600080fd5b7f4e487b7100000000000000000000000000000000000000000000000000000000600052604160045260246000fd5b611d5182611ca8565b810181811067ffffffffffffffff82111715611d7057611d6f611d19565b5b80604052505050565b6000611d83611a68565b9050611d8f8282611d48565b919050565b600067ffffffffffffffff821115611daf57611dae611d19565b5b602082029050602081019050919050565b600080fd5b6000611dd8611dd384611d94565b611d79565b90508083825260208201905060208402830185811115611dfb57611dfa611dc0565b5b835b81811015611e245780611e108882611afb565b845260208401935050602081019050611dfd565b5050509392505050565b600082601f830112611e4357611e42611d14565b5b8135611e53848260208601611dc5565b91505092915050565b600080fd5b600067ffffffffffffffff821115611e7c57611e7b611d19565b5b611e8582611ca8565b9050602081019050919050565b82818337600083830152505050565b6000611eb4611eaf84611e61565b611d79565b905082815260208101848484011115611ed057611ecf611e5c565b5b611edb848285611e92565b509392505050565b600082601f830112611ef857611ef7611d14565b5b8135611f08848260208601611ea1565b91505092915050565b600080600080600060a08688031215611f2d57611f2c611a72565b5b6000611f3b88828901611ac5565b9550506020611f4c88828901611ac5565b945050604086013567ffffffffffffffff811115611f6d57611f6c611a77565b5b611f7988828901611e2e565b935050606086013567ffffffffffffffff811115611f9a57611f99611a77565b5b611fa688828901611e2e565b925050608086013567ffffffffffffffff811115611fc757611fc6611a77565b5b611fd388828901611ee3565b9150509295509295909350565b600067ffffffffffffffff821115611ffb57611ffa611d19565b5b602082029050602081019050919050565b600061201f61201a84611fe0565b611d79565b9050808382526020820190506020840283018581111561204257612041611dc0565b5b835b8181101561206b57806120578882611ac5565b845260208401935050602081019050612044565b5050509392505050565b600082601f83011261208a57612089611d14565b5b813561209a84826020860161200c565b91505092915050565b600080604083850312156120ba576120b9611a72565b5b600083013567ffffffffffffffff8111156120d8576120d7611a77565b5b6120e485828601612075565b925050602083013567ffffffffffffffff81111561210557612104611a77565b5b61211185828601611e2e565b9150509250929050565b600081519050919050565b600082825260208201905092915050565b6000819050602082019050919050565b61215081611ada565b82525050565b60006121628383612147565b60208301905092915050565b6000602082019050919050565b60006121868261211b565b6121908185612126565b935061219b83612137565b8060005b838110156121cc5781516121b38882612156565b97506121be8361216e565b92505060018101905061219f565b5085935050505092915050565b600060208201905081810360008301526121f3818461217b565b905092915050565b600060608201905081810360008301526122158186611cb9565b905081810360208301526122298185611cb9565b9050818103604083015261223d8184611cb9565b9050949350505050565b61225081611a9c565b82525050565b600060208201905061226b6000830184612247565b92915050565b61227a81611bff565b811461228557600080fd5b50565b60008135905061229781612271565b92915050565b600080604083850312156122b4576122b3611a72565b5b60006122c285828601611ac5565b92505060206122d385828601612288565b9150509250929050565b600080604083850312156122f4576122f3611a72565b5b600061230285828601611ac5565b925050602061231385828601611ac5565b9150509250929050565b600080600080600060a0868803121561233957612338611a72565b5b600061234788828901611ac5565b955050602061235888828901611ac5565b945050604061236988828901611afb565b935050606061237a88828901611afb565b925050608086013567ffffffffffffffff81111561239b5761239a611a77565b5b6123a788828901611ee3565b9150509295509295909350565b6000602082840312156123ca576123c9611a72565b5b60006123d884828501611ac5565b91505092915050565b7f4e487b7100000000000000000000000000000000000000000000000000000000600052602260045260246000fd5b6000600282049050600182168061242857607f821691505b60208210810361243b5761243a6123e1565b5b50919050565b60006040820190506124566000830185612247565b6124636020830184612247565b9392505050565b600060408201905061247f6000830185611b50565b61248c6020830184611b50565b9392505050565b7f4e487b7100000000000000000000000000000000000000000000000000000000600052603260045260246000fd5b7f4d757374206d696e74206174206c65617374203120746f6b656e000000000000600082015250565b60006124f8601a83611c6d565b9150612503826124c2565b602082019050919050565b60006020820190508181036000830152612527816124eb565b9050919050565b7f4e487b7100000000000000000000000000000000000000000000000000000000600052601160045260246000fd5b600061256882611ada565b91507fffffffffffffffffffffffffffffffffffffffffffffffffffffffffffffffff820361259a5761259961252e565b5b600182019050919050565b60008190508160005260206000209050919050565b60006020601f8301049050919050565b600082821b905092915050565b6000600883026126077fffffffffffffffffffffffffffffffffffffffffffffffffffffffffffffffff826125ca565b61261186836125ca565b95508019841693508086168417925050509392505050565b6000819050919050565b600061264e61264961264484611ada565b612629565b611ada565b9050919050565b6000819050919050565b61266883612633565b61267c61267482612655565b8484546125d7565b825550505050565b600090565b612691612684565b61269c81848461265f565b505050565b5b818110156126c0576126b5600082612689565b6001810190506126a2565b5050565b601f821115612705576126d6816125a5565b6126df846125ba565b810160208510156126ee578190505b6127026126fa856125ba565b8301826126a1565b50505b505050565b600082821c905092915050565b60006127286000198460080261270a565b1980831691505092915050565b60006127418383612717565b9150826002028217905092915050565b61275a82611c62565b67ffffffffffffffff81111561277357612772611d19565b5b61277d8254612410565b6127888282856126c4565b600060209050601f8311600181146127bb57600084156127a9578287015190505b6127b38582612735565b86555061281b565b601f1984166127c9866125a5565b60005b828110156127f1578489015182556001820191506020850194506020810190506127cc565b8683101561280e578489015161280a601f891682612717565b8355505b6001600288020188555050505b505050505050565b60006080820190506128386000830187612247565b6128456020830186611b50565b6128526040830185611b50565b61285f6060830184611b50565b95945050505050565b600061287382611ada565b915061287e83611ada565b92508282019050808211156128965761289561252e565b5b92915050565b600060408201905081810360008301526128b6818561217b565b905081810360208301526128ca818461217b565b90509392505050565b600081519050919050565b600082825260208201905092915050565b60006128fa826128d3565b61290481856128de565b9350612914818560208601611c7e565b61291d81611ca8565b840191505092915050565b600060a08201905061293d6000830188612247565b61294a6020830187612247565b6129576040830186611b50565b6129646060830185611b50565b818103608083015261297681846128ef565b90509695505050505050565b60008151905061299181611ba6565b92915050565b6000602082840312156129ad576129ac611a72565b5b60006129bb84828501612982565b91505092915050565b600060a0820190506129d96000830188612247565b6129e66020830187612247565b81810360408301526129f8818661217b565b90508181036060830152612a0c818561217b565b90508181036080830152612a2081846128ef565b9050969550505050505056fea26469706673582212203ebbc8cb6707a931575b45fd72e47b1b243bedf4ac2d4881d4ce0679e479228864736f6c63430008180033",
  "linkReferences": {},
  "deployedLinkReferences": {}
}